S01700005457495F554E49545F5445535453332E7372656355
S113000062C1000080C100007EC100007CC100000C
S11300107AC1000078C1000076C1000074C10000FC
S113002072C1000070C100006EC100006CC100000C
S11300306AC1000068C1000066C1000064C100001C
S113004062C1000060C100005EC100005CC100002C
S11300505AC1000058C1000056C1000054C100003C
S113006052C1000050C100004EC100004CC100004C
S11300704AC1000048C1000046C1000044C100005C
S113008042C1000040C100003EC100003CC100006C
S11300903AC1000038C1000036C1000013C200009C
S11300A032C1000030C100002EC100002CC100008C
S11300B02AC1000028C1000026C1000024C100009C
S11300C022C1000020C100001EC100001CC10000AC
S11300D01AC1000018C1000016C1000014C10000BC
S11300E012C1000010C100000EC100000CC10000CC
S11300F00AC1000008C1000006C1000004C10000DC
S113010002C1000000C10000FEC00000FCC00000ED
S1130110FAC00000F8C00000F6C00000F4C00000FF
S1130120F2C00000F0C00000EEC00000ECC000000F
S1130130EAC000000C0308040804080408040804C6
S113014008040804830208040804080408040804D2
S113015008040804830208040804080408040804C2
S113016008040804A802080408040804080408048D
S1130170080408040C030804080408040804080418
S113018008040804A802080408040804080408046D
S1130190080408040C0308040804080408040804F8
S11301A0080408049903080408040804080408045B
S11301B008040804110308040804080408040804D3
S11301C0080408040C0308040804080408040804C8
S11301D0080408043A03080408040804080408048A
S11301E00804080472030804080408040804080442
S11301F008040804CD0308040804080408040804D7
S113020008040804CD0308040804080408040804C6
S113021008040804CD0308040804080408040804B6
S113022008040804CD0308040804080408040804A6
S113023008040804D703080408040804080408048C
S113024008040804FC030804080408040804080457
S113025008040804D703080408040804080408046C
S113026008040804FC030804080408040804080437
S113027008040804F0030804080408040804080433
S113028008040804A2030804080408040804080471
S113029008040804A2030804080408040804080461
S11302A008040804A603080408040804080408044D
S11302B008040804C1030804080408040804080422
S11302C008040804FC0311241FBECFEFD1E8DEBFED
S11302D0CDBF00E00CBF12E0A0E0B2E0EEE2F5E139
S11302E000E00BBF02C007900D92A033B107D9F70D
S11302F022E0A0E3B2E001C01D92A535B207E1F708
S113030042D40C94950A7CCECF93DF931F92CDB741
S1130310DEB78FEF80936400809365008FB7898385
S1130320F89489815F9350E85093610050E05093B2
S113033061005F918FBF0F90DF91CF910895CF93AC
S1130340DF931F92CDB7DEB79FB79983F894998155
S1130350823040F4E82FF0E0EC59FF4F6095808143
S1130360682360839FBF0F90DF91CF910895CF934F
S1130370DF931F92CDB7DEB780914502909146027C
S1130380E0914102F0914202BE016F5F7F4F1995E7
S11303908981082E000C990B0F90DF91CF9108955D
S11303A0682F8091450290914602E0914302F091BA
S11303B04402199599231CF081E090E008958FEF91
S11303C09FEF08952C9A249A6C98749A089581E06A
S11303D080933F021092310280E98093BC0008951B
S11303E06115710529F180913102811123C0E9E37E
S11303F0F2E071836083138212821582148281E099
S113040080933102FB0184819581892B21F484E05E
S113041080933F0203C082E080933F0285EA809389
S1130420BC00809131028111FCCF8091400208957B
S113043088EF089580E808956115710551F1FB0175
S113044080859185892B39F180913102811125C0F4
S1130450E9E3F2E0718360831382128215821482CD
S113046081E080933102FB0184819581892B21F401
S113047085E080933F0203C083E080933F0285EAD6
S11304808093BC00809131028111FCCF80914002A5
S1130490089588EF089588EF089580E80895F89402
S11304A0ECEBF0E010821092B900DB0114968C9111
S11304B08093B800808181608083789410923002A8
S11304C080E008951F920F920FB60F9211240BB67D
S11304D00F922F933F934F935F936F937F938F93D9
S11304E09F93AF93BF93EF93FF938091B900887F5D
S11304F090E0893C910508F08BC1FC018827E65601
S1130500FF4F8F4FBEC380913F029EEF980F9330F1
S113051060F4E0913902F0913A0280818E7F8093F9
S1130520BB0085E88093BC008BC1853061F4E09109
S11305303902F0913A02808181608093BB0085E8A2
S11305408093BC007DC143DF8BEF8093400278C170
S113055080913F02843051F5E9E3F2E08481958192
S11305600190F081E02D208531858217930798F45E
S113057026813781AC014F5F5F4F50933E02409319
S11305803D02F901E80FF91F80818093BB0085E8E3
S11305908093BC0055C184E98093BC00E9E3F2E098
S11305A081E086831782109231024AC19EEF980F30
S11305B0923038F5E9E3F2E082819381A081B18140
S11305C0A80FB91F11962C910196938382832093CF
S11305D0BB0025E82093BC000190F081E02D24812C
S11305E035812817390709F02BC180913F028230E9
S11305F021F484E080933F0223C185E080933F028D
S11306001FC1853021F485EA8093BC0019C1DFDE67
S11306108BEF8093400214C1DADE8FEF80934002A7
S11306200FC180913F02853001F5E9E3F2E0A0813A
S1130630B18118968D919C911997019724813581E8
S11306402817390749F4ECEBF0E080818F7B808335
S1130650808185688083F4C0ECEBF0E08081806465
S11306608083808185688083EBC0B1DE8BEF8093CB
S11306704002E6C02091BB0080913F02853069F5BD
S1130680E9E3F2E0A081B18116966D917C91179710
S113069084819581AC014F5F5F4F55834483FB0197
S11306A0E80FF91F208318968D919C911997019753
S11306B04817590748F4ECEBF0E0808180648083AC
S11306C0808185688083BCC0ECEBF0E080818F7B07
S11306D08083808185688083B3C079DE8BEF8093CB
S11306E04002AEC02091BB0080913F028530E1F40E
S11306F0E9E3F2E0A081B18116964D915C911797E0
S113070084819581BC016F5F7F4F75836483DA01B7
S1130710A80FB91F2C9384E98093BC0081E08683E1
S11307201782109231028CC052DE8BEF809340020C
S113073087C0E9E3F2E081E0868386EF8783109245
S113074031027EC01092350210923402E2E3F2E0EC
S1130750A081B18112962D913C911397828193814E
S1130760AC014F5F5F4F53834283D901A80FB91F78
S11307708C918093BB0085EC8093BC0088E08483DB
S11307805FC0E2E3F2E081E0848382E090E096835C
S1130790858385EC8093BC0053C0E2E3F2E01382CE
S11307A0128285EC8093BC0088E0848349C0209148
S11307B0BB00E2E3F2E0A081B1814D915C918281C2
S11307C09381BC016F5F7F4F73836283DA01A80F4B
S11307D0B91F2C9385EC8093BC0088E0848330C0DF
S11307E0E2E3F2E081E0848383E090E09683858312
S11307F085EC8093BC0024C0E2E3F2E081E08483D2
S113080080E98093BC008FEF9FEF9683858318C0A7
S113081080913002811109C0E9E3F2E081E086832E
S11308208BEF8783109231020BC0E2E3F2E08EEF8C
S11308309FEF9683858381E0848385EC8093BC005D
S1130840FF91EF91BF91AF919F918F917F916F91A4
S11308505F914F913F912F910F900BBE0F900FBE60
S11308600F901F901895FC01908195FFFDCF668332
S113087080E00895FC0190819923ECF78681089526
S11308804F925F926F927F928F929F92AF92BF929C
S1130890CF92DF92EF92FF920F931F93CF93DF9348
S11308A0EC016A017B0128013901689412F87694FD
S11308B06794579447941694D1F7888181FD0EC0AC
S11308C048015901072E73E1B694A794979487942D
S11308D07A95D1F7702DD301C20115C0D901C80191
S11308E0689413F8B695A795979587951694D1F7BC
S11308F048015901072E74E1B694A79497948794FC
S11309007A95D1F7702D8C159D05AE05BF0568F15C
S1130910C814D904EA04FB0450F1888181FF0FC094
S1130920A7019601220F331F441F551FC301B201B3
S113093086D1DA01C9010197A109B10912C0C9011F
S1130940B801689413F896958795779567951694EA
S1130950D1F7A701960173D1DA01C9010197A10961
S1130960B1099D838C8381E003C080E001C080E0F5
S1130970DF91CF911F910F91FF90EF90DF90CF9077
S1130980BF90AF909F908F907F906F905F904F90AB
S113099008950F931F93CF93DF93EC018B01803C59
S11309A0910521F462E080E0CADC06C0883C910530
S11309B019F461E081E0C3DC8A818F738A83F801D2
S11309C02681358184819A81482F4370440F997F11
S11309D0942B9A8399818470880F880F9B7F892B2D
S11309E089838A818F7C832B8A839A81977F822F44
S11309F0880F880F880F892B8A83408151816281F7
S1130A00738100E012E12AE730E0CE0139DF9981F9
S1130A1098609983998190619983DF91CF911F9117
S1130A200F91089504C061507109810991096115FC
S1130A30710581059105B9F70895CF93DF93EB0113
S1130A4019DF8883DF91CF9108950DCF0895CF9357
S1130A50DF93CDB7DEB72A970FB6F894DEBF0FBE8B
S1130A60CDBFFE0131968AE0DF011D928A95E9F738
S1130A7086E9898381E08A8381E090E09E838D8387
S1130A802EE232E038872F839A878987BE016F5F11
S1130A907F4F88EB90E0A4DC8111F8CF6BE07AE122
S1130AA080E090E0BFDF2A960FB6F894DEBF0FBE59
S1130AB0CDBFDF91CF910895CF93DF93CDB7DEB74C
S1130AC02C970FB6F894DEBF0FBECDBF19821A82E1
S1130AD0FE0133968AE0DF011D928A95E9F786E9E3
S1130AE08B8381E090E098878F83CE0101969A876B
S1130AF0898782E090E09C878B87BE016D5F7F4F82
S1130B0088EB90E099DC8111F8CFE9E4F2E0898187
S1130B1080838A818183CF012C960FB6F894DEBF3F
S1130B200FBECDBFDF91CF9108950F931F93CF9345
S1130B30DF9300D000D0CDB7DEB78E010F5F1F4F1B
S1130B4086E0F80111928A95E9F788E498EEA1E02D
S1130B50B0E089839A83AB83BC8386E98E8388E182
S1130B608D8360E880E0EBDBB80188EB90E097DCF4
S1130B7026960FB6F894DEBF0FBECDBFDF91CF919E
S1130B801F910F910895CF93DF93CDB7DEB72797C9
S1130B900FB6F894DEBF0FBECDBF14DCB5DB88EC16
S1130BA090E0909346028093450285E295E090930D
S1130BB04402809343028DE195E090934202809336
S1130BC0410283E08D831E821F8280E895E2A0E0CB
S1130BD0B0E089839A83AB83BC83BE016F5F7F4F90
S1130BE088EC90E0D6DE67EB71E080ED91E051D0C7
S1130BF09CDF2DDF0F2EF6E0EF2EF2E0FF2EF02D1E
S1130C000BE212E059DF9093480280934702FC0103
S1130C1021811F922F9380811F928F93FF92EF92D5
S1130C20BED01F930F93BBD066E578E584E190E0D6
S1130C30F9DE0FB6F894DEBF0FBECDBFE3CFA1E25D
S1130C401A2EAA1BBB1BFD010DC0AA1FBB1FEE1F42
S1130C50FF1FA217B307E407F50720F0A21BB30B8D
S1130C60E40BF50B661F771F881F991F1A9469F709
S1130C7060957095809590959B01AC01BD01CF0165
S1130C800895EE0FFF1F881F8BBF0790F691E02D8C
S1130C9019940F931F93CF93DF93009731F4611549
S1130CA0710519F480E090E039C08B01EC016EE02D
S1130CB070E081E090E083D2FC01892B99F380E815
S1130CC083830115110571F01387028781E88383FB
S1130CD080914B0290914C02892B21F4F0934C02A9
S1130CE0E0934B022097C9F0D187C087838182604B
S1130CF0838380914D0290914E02892B71F4F0937D
S1130D004E02E0934D0280914F0290915002892B44
S1130D1021F4F0935002E0934F02CF01DF91CF9181
S1130D201F910F9108950F931F93CF93DF93FB01AE
S1130D30238121FD03C08FEF9FEF2CC022FF16C03B
S1130D4046815781248135814217530744F4A08199
S1130D50B1819D012F5F3F4F318320838C93268186
S1130D6037812F5F3F4F3783268314C08B01EC01FB
S1130D70FB010084F185E02D1995892BE1F6D8015A
S1130D8016968D919C911797019617969C938E9326
S1130D901697CE01DF91CF911F910F910895CF93B4
S1130DA0DF93CDB7DEB7AE014A5F5F4FFA016191C1
S1130DB07191AF0180914D0290914E0203D0DF9169
S1130DC0CF9108952F923F924F925F926F927F92AC
S1130DD08F929F92AF92BF92CF92DF92EF92FF9247
S1130DE00F931F93CF93DF93CDB7DEB72B970FB637
S1130DF0F894DEBF0FBECDBF6C017B018A01FC01FC
S1130E0017821682838181FFBFC1CE0101963C0106
S1130E10F6019381F70193FD859193FF81917F0101
S1130E20882309F4ADC1853239F493FD859193FF8C
S1130E3081917F01853221F4B60190E074DFE8CF1F
S1130E40912C212C312CFFE1F315D8F08B3279F061
S1130E5038F4803279F08332A1F4232D20611DC04F
S1130E608D3261F0803369F4232D216016C0832D07
S1130E708260382EE32DE4603E2E2AC0F32DF86004
S1130E801DC037FC2DC020ED280F2A3040F08E32D3
S1130E90B9F436FC75C1232D2064322E19C036FEF8
S1130EA006C08AE0989E200D1124922E11C0EAE01B
S1130EB02E9E200D1124222EF32DF0623F2E08C009
S1130EC08C3621F4832D8068382E02C0883641F494
S1130ED0F70193FD859193FF81917F018111B3CF38
S1130EE0982F9F7D9554933028F40C5F1F4F9FE3F8
S1130EF099830DC0833631F0833771F0833509F05F
S1130F0055C020C0F801808189830E5F1F4F88245B
S1130F108394912C530112C02801F2E04F0E511C0E
S1130F20F801A080B18036FE03C0692D70E002C0D4
S1130F306FEF7FEFC50190D24C018201F32DFF7753
S1130F403F2E15C0280122E0420E511CF801A0805A
S1130F50B18036FE03C0692D70E002C06FEF7FEFF1
S1130F60C50168D24C01F32DF0683F2E820133FC99
S1130F7019C0822D90E088169906A0F4B60180E28B
S1130F8090E0D1DE2A94F5CFF50137FC859137FE48
S1130F9081915F01B60190E0C6DE21102A9421E020
S1130FA0821A91088114910479F7E1C0843611F012
S1130FB0893639F5F80137FE07C060817181828175
S1130FC093810C5F1F4F08C060817181072E000C54
S1130FD0880B990B0E5F1F4FF32DFF763F2E97FF63
S1130FE009C090958095709561957F4F8F4F9F4F65
S1130FF0F0683F2E2AE030E0A30139D2882E86180B
S113100044C0853731F4232D2F7EB22E2AE030E000
S113101025C0932D997FB92E8F36C1F018F48835E9
S113102079F0AEC0803719F0883721F0A9C0E92FD4
S1131030E061BE2EB4FE0DC0FB2DF460BF2E09C0CE
S113104034FE0AC0292F2660B22E06C028E030E004
S113105005C020E130E002C020E132E0F801B7FE33
S113106007C060817181828193810C5F1F4F06C02C
S11310706081718180E090E00E5F1F4FA301F7D182
S1131080882E8618FB2DFF773F2E36FE0DC0232DAC
S11310902E7FA22E891458F434FE0BC032FC09C0F2
S11310A0832D8E7EA82E05C0B82CA32C03C0B82C8B
S11310B001C0B92CA4FE0FC0FE01E80DF11D808112
S11310C0803321F49A2D997EA92E09C0A2FE06C070
S11310D0B394B39404C08A2D867809F0B394A3FC26
S11310E010C0A0FE06C0B21480F4280C922C9B18E9
S11310F00DC0B21458F4B60180E290E014DEB3944B
S1131100F8CFB21418F42B1802C0982C212CA4FE8A
S11311100FC0B60180E390E006DEA2FE16C0A1FC7B
S113112003C088E790E002C088E590E0B6010CC0F7
S11311308A2D867851F0A1FE02C08BE201C080E2C4
S1131140A7FC8DE2B60190E0EEDD891430F4B6011F
S113115080E390E0E8DD9A94F8CF8A94F301E80DF7
S1131160F11D8081B60190E0DEDD8110F6CF2220F2
S113117009F44ECEB60180E290E0D5DD2A94F7CF93
S1131180F6018681978102C08FEF9FEF2B960FB6F1
S1131190F894DEBF0FBECDBFDF91CF911F910F91A9
S11311A0FF90EF90DF90CF90BF90AF909F908F9083
S11311B07F906F905F904F903F902F9008950F9382
S11311C01F93CF93DF93869F8001879F100D969F77
S11311D0100D1124C8010DD0EC01009721F0A801D5
S11311E060E070E032D1CE01DF91CF911F910F9179
S11311F008950F931F93CF93DF938230910510F4DA
S113120082E090E0E0915302F091540220E030E05B
S1131210A0E0B0E0309719F140815181028113813F
S113122048175907C8F08417950769F4109731F0E7
S113123012960C93129713961C9327C00093530293
S11312401093540222C02115310519F04217530797
S113125018F49A01BD01EF01DF01F801DBCF21157C
S11312603105F9F0281B390B2430310580F48A81CB
S11312709B816115710521F0FB019383828304C076
S11312809093540280935302FE01329644C0FE01AF
S1131290E20FF31F819391932250310939832883FC
S11312A03AC02091510230915202232B41F42091F3
S11312B00202309103023093520220935102209192
S11312C00002309101022115310541F42DB73EB7DA
S11312D04091040250910502241B350BE091510208
S11312E0F0915202E217F307A0F42E1B3F0B2817CC
S11312F0390778F0AC014E5F5F4F2417350748F08B
S11313004E0F5F1F50935202409351028193919369
S113131002C0E0E0F0E0CF01DF91CF911F910F9187
S11313200895CF93DF93009709F481C0FC013297AD
S113133013821282A0915302B0915402109781F447
S113134020813181820F931F2091510230915202EA
S11313502817390751F5F0935202E093510267C000
S1131360ED0120E030E0CE17DF0740F44A815B81D5
S11313709E0141155105F1F0EA01F5CFD383C283F3
S113138040815181840F951FC817D90759F488816A
S11313909981840F951F0296918380838A819B8112
S11313A0938382832115310529F4F0935402E09349
S11313B053023DC0E901FB83EA8349915991C40F6B
S11313C0D51FEC17FD0761F480819181840F951F6F
S11313D00296E90199838883828193819B838A831E
S11313E0E0E0F0E012968D919C911397009719F02C
S11313F0FD01DC01F7CF8D919C9111979D012E5F2A
S11314003F4F820F931F20915102309152022817AF
S1131410390769F4309729F4109254021092530258
S113142002C013821282B0935202A0935102DF9140
S1131430CF910895FC010590615070400110D8F7D8
S1131440809590958E0F9F1F0895DC0101C06D93C8
S113145041505040E0F70895FC0161507040019004
S11314600110D8F7809590958E0F9F1F0895FA016B
S1131470AA27283051F1203181F1E8946F936E7FCF
S11314806E5F7F4F8F4F9F4FAF4FB1E03ED0B4E0C0
S11314903CD0670F781F891F9A1FA11D680F791F01
S11314A08A1F911DA11D6A0F711D811D911DA11D12
S11314B020D009F468943F912AE0269F1124301922
S11314C0305D3193DEF6CF010895462F4770405DBD
S11314D04193B3E00FD0C9F7F6CF462F4F70405D6C
S11314E04A3318F0495D31FD4052419302D0A9F7C7
S11314F0EACFB4E0A6959795879577956795BA95C1
S1131500C9F700976105710508959B01AC010A2E86
S113151006945795479537952795BA95C9F7620F5D
S1111520731F841F951FA01D0895F894FFCF1C
S113152E0000550220000A204C612074656D706520
S113153E7261747572612065732064653A20256446
S113154E2C256420BA43200A200D000A0D006000E9
S9030000FC
